:1000000071C000008EC000008CC000008AC00000DB
:1000100088C0000086C0000084C0000082C00000CC
:1000200080C000007EC000007CC000007AC00000DC
:1000300078C0000076C0000074C0000072C00000EC
:1000400070C000006EC000006CC000006AC00000FC
:1000500068C0000066C0000064C0000062C000000C
:1000600060C000005EC000005CC000005AC000001C
:1000700058C0000056C0000054C0000052C000002C
:1000800050C000004EC000004CC000004AC000003C
:1000900048C0000046C0000044C0000042C000004C
:1000A00040C000003EC000003CC000003AC000005C
:1000B00038C0000036C0000034C0000032C000006C
:1000C00030C000002EC000002CC000002AC000007C
:1000D00028C0000026C0000024C0000022C000008C
:1000E00020C0000011241FBECFEFD1E2DEBFCDBF84
:1000F00000E00CBF13E0A0E0B2E0E2E9FFE000E0C6
:100100000BBF02C007900D92AC36B107D9F723E0C0
:10011000ACE6B3E001C01D92A23EB207E1F740D3C6
:1001200036C76ECF04C0615071098109910961150C
:10013000710581059105B9F708958EBD00000DB4D4
:1001400007FEFDCF8EB50895CF93C82F20E041E084
:1001500060E271EA87E090E057D128988C2F8068A0
:10016000ECDF80E0EADF289ACF910895CF93C82F83
:1001700020E041E060E271EA87E090E045D1289814
:100180008C2F8068DADF80E0D8DFC82F80E0D5DFF1
:10019000289A2C2F30E0322F2227A901482BCA01A0
:1001A000CF910895E3DF9827892798270895CF9363
:1001B000DF9388E8F7DFC4ECD3E0998388838AE88B
:1001C000F1DF9B838A838CE8EDDF9D838C838981BB
:1001D0008F9388818F9387E792E09F938F93ABD320
:1001E0008B818F938A818F938DE992E09F938F9378
:1001F000A2D38D818F938C818F9381EC92E09F931A
:100200008F9399D38DB79EB70C960FB6F8949EBF77
:100210000FBE8DBFDF91CF910895CF9380ED94DF16
:10022000C82F1F928F9387EE92E09F938F9383D373
:100230000F900F900F900F90C83549F4B8DF66E328
:1002400072E880E090E06EDF81E090E002C080E044
:1002500090E0CF910895CF92DF92EF92FF92CF93EB
:10026000C82F20E041E060E271EA87E090E0CCD066
:1002700028988C2F806861DF80E05FDFC82ED12C4A
:10028000E12CF12CFE2CED2CDC2CCC2480E055DF75
:10029000C82AFE2CED2CDC2CCC2480E04EDF289AE2
:1002A000A7019601282BCA01B901CF91FF90EF90C9
:1002B000DF90CF9008958F929F92AF92BF92CF928E
:1002C000DF92EF92FF920F931F938AEFC4DFE4EC6B
:1002D000F3E00081118120E030E0C72ED82EE92E16
:1002E000FF24E7FCFA94C01AD10AE20AF30ADC01FF
:1002F000CB01689416F8B595A795979587951694B0
:10030000D1F7000F111F221F331F4C015D01801A0E
:10031000910AA20AB30AA5019401A281B38192D2E3
:100320004B015C01072E7BE0B594A79497948794CA
:100330007A95D1F7702DA7019601C701B6014DD26C
:100340009B01AC01012E1CE05595479537952795EB
:100350001A95D1F7102DA481B58174D2DC01CB019F
:10036000072E7EE0B595A795979587957A95D1F755
:10037000702D880D991DAA1DBB1D80936C03909351
:100380006D03A0936E03B0936F038C019D01000F6A
:10039000111F221F331F000F111F221F331F800F39
:1003A000911FA21FB31F80589F4FAF4FBF4F692FA0
:1003B0007A2F8B2F992787FD9A951F910F91FF9088
:1003C000EF90DF90CF90BF90AF909F908F90089567
:1003D000289A209A8CB580618CBD8CB580648CBDC8
:1003E000219A229A1092710310927003089587E067
:1003F000089591E089272CB5982F96959370922BAC
:100400009CBD81708DBD0895CF93DF93862FD42F2F
:10041000C22F9CB590649CBD9CB590619CBDE7DFEC
:10042000E8DF8CB52C2F2C70282B2CBD8CB5DD2350
:1004300011F090E001C090E2892B8CBD8091700397
:100440009091710301969093710380937003DF91F3
:10045000CF910895CF93C82F873061F42091E003A6
:100460003091E10347E050E061E070E089EF92E015
:1004700020D20BC08A3011F48DE0ECDFE0ECF0E02C
:10048000808185FFFDCFC093C60080E090E0CF91D2
:1004900008956F927F928F929F92AF92BF92CF9268
:1004A000DF92EF92FF920F931F93CF93DF932091F0
:1004B000C2033091C303232B09F0CCC08C010F2E53
:1004C000F2E78F2EF3E09F2EF02DC0ECD0E00F2E40
:1004D000F6ECCF2ED12CF02D54010F2EF1E76F2E1C
:1004E000F3E07F2EF02D88818823ECF7888184FD4E
:1004F000C4C0888183FDC4C0F60180818D3011F0B5
:100500008A3061F48AE0F4018083B801A3DF82E7D6
:1005100093E09093C3038093C2039CC0893039F069
:1005200090EE980F9F3520F0803AA8F001C080E24D
:10053000F1EC8F16F3E09F0621F4B80187E08ADF23
:10054000D2CF74019FEFE91AF90AF4018083B80150
:1005500081DF4701C8CF8231B9F130F4833009F42B
:1005600092C08830E9F0BFCF873129F08F37C1F0D2
:10057000853179F0B8CFF2E78F16F3E09F0609F0E6
:1005800008F4B1CFF40131978081803209F04AC07C
:10059000AACF82E7881683E0980609F070F5A3CF0A
:1005A00092E7891693E0990609F008F49CCFB80108
:1005B00088E050DFB80180E24DDFB80188E04ADF13
:1005C000E1E08E1A91088FCFB8018DE043DFF2E7AA
:1005D0008F16F3E09F0609F008F485CF0F2EF2E79F
:1005E000EF2EF3E0FF2EF02DB801F70181917F018E
:1005F00031DF8E149F04C1F776CFB80188E02ADF7F
:10060000B80180E227DFB80188E024DFF1E08F1A2B
:10061000910882E7881683E0980679F7F30131960E
:100620004F0161CF7401F1E0EF1AF108B80188E0E1
:1006300011DFB80180E20EDFB80188E00BDF47016F
:10064000AE14BF0409F44FCFF70182917F018032CD
:1006500069F749CFE091C203F091C303CF0101963E
:100660009093C3038093C20380818A3021F4109257
:10067000C3031092C20390E008C08EEF9FEF05C045
:100680008FEF9FEF02C08FEF9FEFDF91CF911F9110
:100690000F91FF90EF90DF90CF90BF90AF909F9021
:1006A0008F907F906F9008951092C50080E18093A5
:1006B000C40088E18093C10086E08093C200ECED25
:1006C000F3E080E092E091838083938382830895B6
:1006D000089504C06150710981099109611571057E
:1006E00081059105B9F708958F929F92AF92BF92BD
:1006F000CF92DF92EF92FF920F931F93CF93DF93EE
:1007000000D000D0CDB7DEB7D6DD6B017C010F2E57
:10071000F4E68F2E912CA12CB12CF02DA501940183
:100720006BD09F938F937F936F93A7019601261BA6
:10073000370B480B590BCA01B901A50194015CD0D4
:100740005F934F933F932F9381E093E09F938F9319
:100750001F9286E08F938E010F5F1F4F1F930F93A1
:100760002DD11F930F9389E093E09F938F93E3D054
:100770000FB6F894DEBF0FBECDBF26960FB6F89425
:10078000DEBF0FBECDBFDF91CF911F910F91FF90C4
:10079000EF90DF90CF90BF90AF909F908F90089593
:1007A00097DF82DF15DE6BE07BE882E090E091DF8F
:1007B0008BE193E0D3D031DD019721F488E393E01E
:1007C000CDD004C08CE493E0C9D0FFCF8DDF6BE6C1
:1007D0007EE689E190E07DDFF9CFDB018F939F9387
:1007E00027D0BF91AF91A29F800D911DA39F900D27
:1007F000B29F900D11240895052E97FB16F40094D6
:100800000FD057FD05D024D007FC02D046F408C015
:1008100050954095309521953F4F4F4F5F4F08952C
:1008200090958095709561957F4F8F4F9F4F08955C
:1008300031D0A59F900DB49F900DA49F800D911D68
:1008400011240895B7FFF4CFF3DF821B930B0895B3
:10085000A1E21A2EAA1BBB1BFD010DC0AA1FBB1FC4
:10086000EE1FFF1FA217B307E407F50720F0A21B36
:10087000B30BE40BF50B661F771F881F991F1A94A3
:1008800069F760957095809590959B01AC01BD01CD
:10089000CF010895A29FB001B39FC001A39F700D27
:1008A000811D1124911DB29F700D811D1124911D78
:1008B00008958F929F92AF92BF92CF92DF92EF9264
:1008C000FF920F931F93CF93DF935B014A0179014E
:1008D000D90113962C9121FF1DC0C0E0D0E0C815AE
:1008E000D905D9F08C016C01CA0CDB1CC8010C15B0
:1008F0001D0571F00F5F1F4FD7011896ED91FC9108
:100900001997B701DC018C911995892B79F305C0F2
:100910002196E5CF80E090E001C0CE01DF91CF913C
:100920001F910F91FF90EF90DF90CF90BF90AF900D
:100930009F908F900895CF93DF93CDB7DEB7AE0130
:100940004A5F5F4FFA0161917191AF018091DE03BF
:100950009091DF036FD0DF91CF9108950F931F9394
:10096000CF93DF93E091DE03F091DF03238121FF3A
:100970001BC08C01D0E0C0E0F80181918F01609133
:10098000DE037091DF03DB011896ED91FC9119975E
:10099000882331F01995892B79F3DFEFCFEFECCF76
:1009A0008AE01995892B19F08FEF9FEF02C08D2FE8
:1009B0009C2FDF91CF911F910F9108950F931F935B
:1009C000CF93DF93CDB7DEB72E970FB6F894DEBF87
:1009D0000FBECDBF0E891F89888D998D26E02C838F
:1009E0001A83098397FF02C080E090E801979E83F5
:1009F0008D83AE01445E5F4F6A8D7B8DCE01019683
:100A000019D04D815E8157FD0AC02F81388542176C
:100A100053070CF49A01F801E20FF31F10822E968F
:100A20000FB6F894DEBF0FBECDBFDF91CF911F91FF
:100A30000F9108952F923F924F925F926F927F9203
:100A40008F929F92AF92BF92CF92DF92EF92FF92DE
:100A50000F931F93CF93DF93CDB7DEB72B970FB6CE
:100A6000F894DEBF0FBECDBF6C017B018A01FC0193
:100A700017821682838181FFBFC1CE0101963C019E
:100A8000F6019381F70193FD859193FF81917F0199
:100A9000882309F4ADC1853239F493FD859193FF24
:100AA00081917F01853221F4B60190E0D6D1E8CF63
:100AB000912C212C312CFFE1F315D8F08B3279F0F9
:100AC00038F4803279F08332A1F4232D20611DC0E7
:100AD0008D3261F0803369F4232D216016C0832D9F
:100AE0008260382EE32DE4603E2E2AC0F32DF8609C
:100AF0001DC037FC2DC020ED280F2A3040F08E326B
:100B0000B9F436FC75C1232D2064322E19C036FE8F
:100B100006C08AE0989E200D1124922E11C0EAE0B2
:100B20002E9E200D1124222EF32DF0623F2E08C0A0
:100B30008C3621F4832D8068382E02C0883641F42B
:100B4000F70193FD859193FF81917F018111B3CFCF
:100B5000982F9F7D9554933028F40C5F1F4F9FE38F
:100B600099830DC0833631F0833771F0833509F0F6
:100B700055C020C0F801808189830E5F1F4F8824F3
:100B80008394912C530112C02801F2E04F0E511CA6
:100B9000F801A080B18036FE03C0692D70E002C06C
:100BA0006FEF7FEFC5014ED14C018201F32DFF772E
:100BB0003F2E15C0280122E0420E511CF801A080F2
:100BC000B18036FE03C0692D70E002C06FEF7FEF89
:100BD000C5012DD14C01F32DF0683F2E820133FC6D
:100BE00019C0822D90E088169906A0F4B60180E223
:100BF00090E033D12A94F5CFF50137FC859137FE8B
:100C000081915F01B60190E028D121102A9421E062
:100C1000821A91088114910479F7E1C0843611F0A9
:100C2000893639F5F80137FE07C06081718182810C
:100C300093810C5F1F4F08C060817181072E000CEB
:100C4000880B990B0E5F1F4FF32DFF763F2E97FFFA
:100C500009C090958095709561957F4F8F4F9F4FFC
:100C6000F0683F2E2AE030E0A30133D1882E8618A9
:100C700044C0853731F4232D2F7EB22E2AE030E098
:100C800025C0932D997FB92E8F36C1F018F4883581
:100C900079F0AEC0803719F0883721F0A9C0E92F6C
:100CA000E061BE2EB4FE0DC0FB2DF460BF2E09C066
:100CB00034FE0AC0292F2660B22E06C028E030E09C
:100CC00005C020E130E002C020E132E0F801B7FECB
:100CD00007C060817181828193810C5F1F4F06C0C4
:100CE0006081718180E090E00E5F1F4FA301F1D021
:100CF000882E8618FB2DFF773F2E36FE0DC0232D44
:100D00002E7FA22E891458F434FE0BC032FC09C089
:100D1000832D8E7EA82E05C0B82CA32C03C0B82C22
:100D200001C0B92CA4FE0FC0FE01E80DF11D8081A9
:100D3000803321F49A2D997EA92E09C0A2FE06C007
:100D4000B394B39404C08A2D867809F0B394A3FCBD
:100D500010C0A0FE06C0B21480F4280C922C9B1880
:100D60000DC0B21458F4B60180E290E076D0B3948E
:100D7000F8CFB21418F42B1802C0982C212CA4FE22
:100D80000FC0B60180E390E068D0A2FE16C0A1FCBF
:100D900003C088E790E002C088E590E0B6010CC08F
:100DA0008A2D867851F0A1FE02C08BE201C080E25C
:100DB000A7FC8DE2B60190E050D0891430F4B60162
:100DC00080E390E04AD09A94F8CF8A94F301E80D3A
:100DD000F11D8081B60190E040D08110F6CF222035
:100DE00009F44ECEB60180E290E037D02A94F7CFD6
:100DF000F6018681978102C08FEF9FEF2B960FB689
:100E0000F894DEBF0FBECDBFDF91CF911F910F9140
:100E1000FF90EF90DF90CF90BF90AF909F908F901A
:100E20007F906F905F904F903F902F900895FC01BE
:100E30000590615070400110D8F7809590958E0F05
:100E40009F1F0895FC016150704001900110D8F778
:100E5000809590958E0F9F1F08950F931F93CF93AA
:100E6000DF93FB01238121FD03C08FEF9FEF2CC097
:100E700022FF16C0468157812481358142175307CE
:100E800044F4A081B1819D012F5F3F4F31832083C6
:100E90008C93268137812F5F3F4F3783268314C081
:100EA0008B01EC01FB010084F185E02D1995892B64
:100EB000E1F6D80116968D919C9117970196179699
:100EC0009C938E931697CE01DF91CF911F910F9136
:100ED0000895FA01AA27283051F1203181F1E894D0
:100EE0006F936E7F6E5F7F4F8F4F9F4FAF4FB1E01D
:100EF0003ED0B4E03CD0670F781F891F9A1FA11D18
:100F0000680F791F8A1F911DA11D6A0F711D811D18
:100F1000911DA11D20D009F468943F912AE0269FDD
:100F200011243019305D3193DEF6CF010895462F3C
:100F30004770405D4193B3E00FD0C9F7F6CF462F1D
:100F40004F70405D4A3318F0495D31FD4052419386
:100F500002D0A9F7EACFB4E0A69597958795779543
:100F60006795BA95C9F700976105710508959B01CA
:100F7000AC010A2E06945795479537952795BA9553
:100F8000C9F7620F731F841F951FA01D0895F89461
:020F9000FFCF91
:100F920000000003000000002A02490200004D6F19
:100FA200646520636F72726563740D0054656D70C1
:100FB2002073616D706C696E6720636F7272656316
:100FC200740D0050726573737572652073616D7074
:100FD2006C696E6720636F72726563740D00466997
:100FE2006C746572696E6720636F72726563740DEB
:100FF200005374616E6462792074696D6520636F59
:1010020072726563740D000D0A626D703238305F62
:1010120063616C69625F646174615F726561642EB1
:101022006469675F54313A2025640D0A00626D706D
:101032003238305F63616C69625F646174615F72F0
:101042006561642E6469675F54323A2025640D0A33
:1010520000626D703238305F63616C69625F646137
:1010620074615F726561642E6469675F54333A200C
:1010720025640D0A0D0A0053656E736F7220494490
:101082003A20307825780D0A002A72696E672A0A9A
:1010920000256C642E256C640054656D7065726168
:1010A200747572653A2025730D0A002D2D2D2D2D94
:1010B2002044656661756C742074657374696E672B
:1010C200202D2D2D2D2D0D0053656E736F7220492D
:1010D2006E697469616C697A65640D0053656E733B
:1010E2006F7220696E697469616C697A6174696F83
:0C10F2006E206661696C6564210D0000D1
:00000001FF
